Archive member included because of file (symbol)

d:/uc/sw4stm32/plugins/fr.ac6.mcu.externaltools.arm-none.win32_1.3.0.201507241045/tools/compiler/bin/../lib/gcc/arm-none-eabi/4.9.3/armv7e-m/fpu\libgcc.a(_arm_addsubdf3.o)
                              Src/main.o (__aeabi_dadd)
d:/uc/sw4stm32/plugins/fr.ac6.mcu.externaltools.arm-none.win32_1.3.0.201507241045/tools/compiler/bin/../lib/gcc/arm-none-eabi/4.9.3/armv7e-m/fpu\libgcc.a(_arm_muldivdf3.o)
                              Src/main.o (__aeabi_dmul)
d:/uc/sw4stm32/plugins/fr.ac6.mcu.externaltools.arm-none.win32_1.3.0.201507241045/tools/compiler/bin/../lib/gcc/arm-none-eabi/4.9.3/armv7e-m/fpu\libgcc.a(_arm_truncdfsf2.o)
                              Src/main.o (__aeabi_d2f)
d:/uc/sw4stm32/plugins/fr.ac6.mcu.externaltools.arm-none.win32_1.3.0.201507241045/tools/compiler/bin/../lib/gcc/arm-none-eabi/4.9.3/../../../../arm-none-eabi/lib/armv7e-m/fpu\libc_nano.a(lib_a-exit.o)
                              d:/uc/sw4stm32/plugins/fr.ac6.mcu.externaltools.arm-none.win32_1.3.0.201507241045/tools/compiler/bin/../lib/gcc/arm-none-eabi/4.9.3/../../../../arm-none-eabi/lib/armv7e-m/fpu/crt0.o (exit)
d:/uc/sw4stm32/plugins/fr.ac6.mcu.externaltools.arm-none.win32_1.3.0.201507241045/tools/compiler/bin/../lib/gcc/arm-none-eabi/4.9.3/../../../../arm-none-eabi/lib/armv7e-m/fpu\libc_nano.a(lib_a-impure.o)
                              d:/uc/sw4stm32/plugins/fr.ac6.mcu.externaltools.arm-none.win32_1.3.0.201507241045/tools/compiler/bin/../lib/gcc/arm-none-eabi/4.9.3/../../../../arm-none-eabi/lib/armv7e-m/fpu\libc_nano.a(lib_a-exit.o) (_global_impure_ptr)
d:/uc/sw4stm32/plugins/fr.ac6.mcu.externaltools.arm-none.win32_1.3.0.201507241045/tools/compiler/bin/../lib/gcc/arm-none-eabi/4.9.3/../../../../arm-none-eabi/lib/armv7e-m/fpu\libc_nano.a(lib_a-init.o)
                              d:/uc/sw4stm32/plugins/fr.ac6.mcu.externaltools.arm-none.win32_1.3.0.201507241045/tools/compiler/bin/../lib/gcc/arm-none-eabi/4.9.3/../../../../arm-none-eabi/lib/armv7e-m/fpu/crt0.o (__libc_init_array)
d:/uc/sw4stm32/plugins/fr.ac6.mcu.externaltools.arm-none.win32_1.3.0.201507241045/tools/compiler/bin/../lib/gcc/arm-none-eabi/4.9.3/../../../../arm-none-eabi/lib/armv7e-m/fpu\libc_nano.a(lib_a-memset.o)
                              d:/uc/sw4stm32/plugins/fr.ac6.mcu.externaltools.arm-none.win32_1.3.0.201507241045/tools/compiler/bin/../lib/gcc/arm-none-eabi/4.9.3/../../../../arm-none-eabi/lib/armv7e-m/fpu/crt0.o (memset)
d:/uc/sw4stm32/plugins/fr.ac6.mcu.externaltools.arm-none.win32_1.3.0.201507241045/tools/compiler/bin/../lib/gcc/arm-none-eabi/4.9.3/../../../../arm-none-eabi/lib/armv7e-m/fpu\libnosys.a(_exit.o)
                              d:/uc/sw4stm32/plugins/fr.ac6.mcu.externaltools.arm-none.win32_1.3.0.201507241045/tools/compiler/bin/../lib/gcc/arm-none-eabi/4.9.3/../../../../arm-none-eabi/lib/armv7e-m/fpu\libc_nano.a(lib_a-exit.o) (_exit)

Allocating common symbols
Common symbol       size              file

Distance            0x400             Src/floodfill.o
htim4               0x3c              Src/tim.o
CellWalls           0x1000            Src/floodfill.o
hi2c1               0x54              Src/i2c.o
uwTick              0x4               Drivers/STM32F4xx_HAL_Driver/Src/stm32f4xx_hal.o
pFlash              0x20              Drivers/STM32F4xx_HAL_Driver/Src/stm32f4xx_hal_flash.o
htim3               0x3c              Src/tim.o
hadc1               0x48              Src/adc.o
hdma_adc1           0x60              Src/adc.o
htim6               0x3c              Src/tim.o
htim1               0x3c              Src/tim.o
htim2               0x3c              Src/tim.o
htim7               0x3c              Src/tim.o

Discarded input sections

 .text          0x00000000        0x0 d:/uc/sw4stm32/plugins/fr.ac6.mcu.externaltools.arm-none.win32_1.3.0.201507241045/tools/compiler/bin/../lib/gcc/arm-none-eabi/4.9.3/armv7e-m/fpu/crti.o
 .data          0x00000000        0x0 d:/uc/sw4stm32/plugins/fr.ac6.mcu.externaltools.arm-none.win32_1.3.0.201507241045/tools/compiler/bin/../lib/gcc/arm-none-eabi/4.9.3/armv7e-m/fpu/crti.o
 .bss           0x00000000        0x0 d:/uc/sw4stm32/plugins/fr.ac6.mcu.externaltools.arm-none.win32_1.3.0.201507241045/tools/compiler/bin/../lib/gcc/arm-none-eabi/4.9.3/armv7e-m/fpu/crti.o
 .data          0x00000000        0x4 d:/uc/sw4stm32/plugins/fr.ac6.mcu.externaltools.arm-none.win32_1.3.0.201507241045/tools/compiler/bin/../lib/gcc/arm-none-eabi/4.9.3/armv7e-m/fpu/crtbegin.o
 .text          0x00000000       0x74 d:/uc/sw4stm32/plugins/fr.ac6.mcu.externaltools.arm-none.win32_1.3.0.201507241045/tools/compiler/bin/../lib/gcc/arm-none-eabi/4.9.3/../../../../arm-none-eabi/lib/armv7e-m/fpu/crt0.o
 .data          0x00000000        0x0 d:/uc/sw4stm32/plugins/fr.ac6.mcu.externaltools.arm-none.win32_1.3.0.201507241045/tools/compiler/bin/../lib/gcc/arm-none-eabi/4.9.3/../../../../arm-none-eabi/lib/armv7e-m/fpu/crt0.o
 .bss           0x00000000        0x0 d:/uc/sw4stm32/plugins/fr.ac6.mcu.externaltools.arm-none.win32_1.3.0.201507241045/tools/compiler/bin/../lib/gcc/arm-none-eabi/4.9.3/../../../../arm-none-eabi/lib/armv7e-m/fpu/crt0.o
 .ARM.extab     0x00000000        0x0 d:/uc/sw4stm32/plugins/fr.ac6.mcu.externaltools.arm-none.win32_1.3.0.201507241045/tools/compiler/bin/../lib/gcc/arm-none-eabi/4.9.3/../../../../arm-none-eabi/lib/armv7e-m/fpu/crt0.o
 .ARM.exidx     0x00000000        0x8 d:/uc/sw4stm32/plugins/fr.ac6.mcu.externaltools.arm-none.win32_1.3.0.201507241045/tools/compiler/bin/../lib/gcc/arm-none-eabi/4.9.3/../../../../arm-none-eabi/lib/armv7e-m/fpu/crt0.o
 .ARM.attributes
                0x00000000       0x20 d:/uc/sw4stm32/plugins/fr.ac6.mcu.externaltools.arm-none.win32_1.3.0.201507241045/tools/compiler/bin/../lib/gcc/arm-none-eabi/4.9.3/../../../../arm-none-eabi/lib/armv7e-m/fpu/crt0.o
 .group         0x00000000        0x8 Src/adc.o
 .group         0x00000000        0x8 Src/adc.o
 .group         0x00000000        0x8 Src/adc.o
 .group         0x00000000        0x8 Src/adc.o
 .group         0x00000000        0x8 Src/adc.o
 .group         0x00000000        0x8 Src/adc.o
 .group         0x00000000        0x8 Src/adc.o
Memory Configuration

Name             Origin             Length             Attributes
RAM              0x20000000         0x00020000         xrw
CCMRAM           0x10000000         0x00010000         rw
FLASH            0x08000000         0x00100000         xr
*default*        0x00000000         0xffffffff

Linker script and memory map

LOAD d:/uc/sw4stm32/plugins/fr.ac6.mcu.externaltools.arm-none.win32_1.3.0.201507241045/tools/compiler/bin/../lib/gcc/arm-none-eabi/4.9.3/armv7e-m/fpu/crti.o
LOAD d:/uc/sw4stm32/plugins/fr.ac6.mcu.externaltools.arm-none.win32_1.3.0.201507241045/tools/compiler/bin/../lib/gcc/arm-none-eabi/4.9.3/armv7e-m/fpu/crtbegin.o
LOAD d:/uc/sw4stm32/plugins/fr.ac6.mcu.externaltools.arm-none.win32_1.3.0.201507241045/tools/compiler/bin/../lib/gcc/arm-none-eabi/4.9.3/../../../../arm-none-eabi/lib/armv7e-m/fpu/crt0.o
LOAD d:/uc/sw4stm32/plugins/fr.ac6.mcu.externaltools.arm-none.win32_1.3.0.201507241045/tools/compiler/bin/../lib/gcc/arm-none-eabi/4.9.3/../../../../arm-none-eabi/lib/armv7e-m/fpu\libm.a
LOAD Src/adc.o
LOAD Src/dma.o
LOAD Src/floodfill.o
LOAD Src/gpio.o
LOAD Src/i2c.o
LOAD Src/main.o
LOAD Src/stm32f4xx_hal_msp.o
LOAD Src/stm32f4xx_it.o
LOAD Src/system_stm32f4xx.o
LOAD Src/tim.o
LOAD Drivers/STM32F4xx_HAL_Driver/Src/stm32f4xx_hal.o
LOAD Drivers/STM32F4xx_HAL_Driver/Src/stm32f4xx_hal_adc.o
LOAD Drivers/STM32F4xx_HAL_Driver/Src/stm32f4xx_hal_adc_ex.o
LOAD Drivers/STM32F4xx_HAL_Driver/Src/stm32f4xx_hal_cortex.o
LOAD Drivers/STM32F4xx_HAL_Driver/Src/stm32f4xx_hal_dma.o
LOAD Drivers/STM32F4xx_HAL_Driver/Src/stm32f4xx_hal_dma_ex.o
LOAD Drivers/STM32F4xx_HAL_Driver/Src/stm32f4xx_hal_flash.o
LOAD Drivers/STM32F4xx_HAL_Driver/Src/stm32f4xx_hal_flash_ex.o
LOAD Drivers/STM32F4xx_HAL_Driver/Src/stm32f4xx_hal_flash_ramfunc.o
LOAD Drivers/STM32F4xx_HAL_Driver/Src/stm32f4xx_hal_gpio.o
LOAD Drivers/STM32F4xx_HAL_Driver/Src/stm32f4xx_hal_i2c.o
LOAD Drivers/STM32F4xx_HAL_Driver/Src/stm32f4xx_hal_i2c_ex.o
LOAD Drivers/STM32F4xx_HAL_Driver/Src/stm32f4xx_hal_pwr.o
LOAD Drivers/STM32F4xx_HAL_Driver/Src/stm32f4xx_hal_pwr_ex.o
LOAD Drivers/STM32F4xx_HAL_Driver/Src/stm32f4xx_hal_rcc.o
LOAD Drivers/STM32F4xx_HAL_Driver/Src/stm32f4xx_hal_rcc_ex.o
LOAD Drivers/STM32F4xx_HAL_Driver/Src/stm32f4xx_hal_tim.o
LOAD Drivers/STM32F4xx_HAL_Driver/Src/stm32f4xx_hal_tim_ex.o
LOAD Drivers/CMSIS/Device/ST/STM32F4xx/Source/Templates/gcc/startup_stm32f405xx.o
START GROUP
LOAD d:/uc/sw4stm32/plugins/fr.ac6.mcu.externaltools.arm-none.win32_1.3.0.201507241045/tools/compiler/bin/../lib/gcc/arm-none-eabi/4.9.3/armv7e-m/fpu\libgcc.a
LOAD d:/uc/sw4stm32/plugins/fr.ac6.mcu.externaltools.arm-none.win32_1.3.0.201507241045/tools/compiler/bin/../lib/gcc/arm-none-eabi/4.9.3/../../../../arm-none-eabi/lib/armv7e-m/fpu\libc_nano.a
END GROUP
START GROUP
LOAD d:/uc/sw4stm32/plugins/fr.ac6.mcu.externaltools.arm-none.win32_1.3.0.201507241045/tools/compiler/bin/../lib/gcc/arm-none-eabi/4.9.3/armv7e-m/fpu\libgcc.a
LOAD d:/uc/sw4stm32/plugins/fr.ac6.mcu.externaltools.arm-none.win32_1.3.0.201507241045/tools/compiler/bin/../lib/gcc/arm-none-eabi/4.9.3/../../../../arm-none-eabi/lib/armv7e-m/fpu\libc_nano.a
LOAD d:/uc/sw4stm32/plugins/fr.ac6.mcu.externaltools.arm-none.win32_1.3.0.201507241045/tools/compiler/bin/../lib/gcc/arm-none-eabi/4.9.3/../../../../arm-none-eabi/lib/armv7e-m/fpu\libnosys.a
END GROUP
START GROUP
LOAD d:/uc/sw4stm32/plugins/fr.ac6.mcu.externaltools.arm-none.win32_1.3.0.201507241045/tools/compiler/bin/../lib/gcc/arm-none-eabi/4.9.3/armv7e-m/fpu\libgcc.a
LOAD d:/uc/sw4stm32/plugins/fr.ac6.mcu.externaltools.arm-none.win32_1.3.0.201507241045/tools/compiler/bin/../lib/gcc/arm-none-eabi/4.9.3/../../../../arm-none-eabi/lib/armv7e-m/fpu\libc_nano.a
LOAD d:/uc/sw4stm32/plugins/fr.ac6.mcu.externaltools.arm-none.win32_1.3.0.201507241045/tools/compiler/bin/../lib/gcc/arm-none-eabi/4.9.3/../../../../arm-none-eabi/lib/armv7e-m/fpu\libnosys.a
END GROUP
LOAD d:/uc/sw4stm32/plugins/fr.ac6.mcu.externaltools.arm-none.win32_1.3.0.201507241045/tools/compiler/bin/../lib/gcc/arm-none-eabi/4.9.3/armv7e-m/fpu/crtend.o
LOAD d:/uc/sw4stm32/plugins/fr.ac6.mcu.externaltools.arm-none.win32_1.3.0.201507241045/tools/compiler/bin/../lib/gcc/arm-none-eabi/4.9.3/armv7e-m/fpu/crtn.o
                0x20020000                _estack = 0x20020000
                0x00000200                _Min_Heap_Size = 0x200
                0x00000400                _Min_Stack_Size = 0x400

.isr_vector     0x08000000      0x188
                0x08000000                . = ALIGN (0x4)
 *(.isr_vector)
 .isr_vector    0x08000000      0x188 Drivers/CMSIS/Device/ST/STM32F4xx/Source/Templates/gcc/startup_stm32f405xx.o
                0x08000000                g_pfnVectors
                0x08000188                . = ALIGN (0x4)

.text           0x08000188     0x2f78
                0x08000188                . = ALIGN (0x4)
 *(.text)
 .text          0x08000188       0x5c d:/uc/sw4stm32/plugins/fr.ac6.mcu.externaltools.arm-none.win32_1.3.0.201507241045/tools/compiler/bin/../lib/gcc/arm-none-eabi/4.9.3/armv7e-m/fpu/crtbegin.o
 .text          0x080001e4      0x370 d:/uc/sw4stm32/plugins/fr.ac6.mcu.externaltools.arm-none.win32_1.3.0.201507241045/tools/compiler/bin/../lib/gcc/arm-none-eabi/4.9.3/armv7e-m/fpu\libgcc.a(_arm_addsubdf3.o)
                0x080001e4                __aeabi_drsub
                0x080001ec                __aeabi_dsub
                0x080001ec                __subdf3
                0x080001f0                __aeabi_dadd
                0x080001f0                __adddf3
                0x08000468                __floatunsidf
                0x08000468                __aeabi_ui2d
                0x08000488                __floatsidf
                0x08000488                __aeabi_i2d
                0x080004ac                __aeabi_f2d
                0x080004ac                __extendsfdf2
                0x080004e8                __floatundidf
                0x080004e8                __aeabi_ul2d
                0x080004f8                __floatdidf
                0x080004f8                __aeabi_l2d
 .text          0x08000554      0x424 d:/uc/sw4stm32/plugins/fr.ac6.mcu.externaltools.arm-none.win32_1.3.0.201507241045/tools/compiler/bin/../lib/gcc/arm-none-eabi/4.9.3/armv7e-m/fpu\libgcc.a(_arm_muldivdf3.o)
                0x08000554                __aeabi_dmul
                0x08000554                __muldf3
                0x080007a8                __divdf3
                0x080007a8                __aeabi_ddiv
 .text          0x08000978       0xa0 d:/uc/sw4stm32/plugins/fr.ac6.mcu.externaltools.arm-none.win32_1.3.0.201507241045/tools/compiler/bin/../lib/gcc/arm-none-eabi/4.9.3/armv7e-m/fpu\libgcc.a(_arm_truncdfsf2.o)
                0x08000978                __truncdfsf2
                0x08000978                __aeabi_d2f
 *(.text*)
 .text.MX_ADC1_Init
                0x08000a18       0xc0 Src/adc.o
                0x08000a18                MX_ADC1_Init
 .text.HAL_ADC_MspInit
                0x08000ad8       0x88 Src/adc.o
                0x08000ad8                HAL_ADC_MspInit
 .text.MX_DMA_Init
                0x08000b60       0x34 Src/dma.o
                0x08000b60                MX_DMA_Init
 .text.updateCells
                0x08000b94        0x2 Src/floodfill.o
                0x08000b94                updateCells
 *fill*         0x08000b96        0x2 
 .text.MX_GPIO_Init
                0x08000b98      0x10c Src/gpio.o
                0x08000b98                MX_GPIO_Init
 .text.MX_I2C1_Init
                0x08000ca4       0x40 Src/i2c.o
                0x08000ca4                MX_I2C1_Init
 .text.HAL_I2C_MspInit
                0x08000ce4       0x54 Src/i2c.o
                0x08000ce4                HAL_I2C_MspInit
 .text.SystemClock_Config
                0x08000d38       0xa8 Src/main.o
                0x08000d38                SystemClock_Config
 .text.blink    0x08000de0       0x88 Src/main.o
                0x08000de0                blink
 .text.setPWML  0x08000e68       0xa4 Src/main.o
                0x08000e68                setPWML
 .text.setPWMP  0x08000f0c       0xa0 Src/main.o
                0x08000f0c                setPWMP
 .text.get_speed
                0x08000fac      0x148 Src/main.o
                0x08000fac                get_speed
 .text.getIR_sensors
                0x080010f4       0xdc Src/main.o
                0x080010f4                getIR_sensors
 .text.getSensorError
                0x080011d0       0x48 Src/main.o
                0x080011d0                getSensorError
 .text.setTransVelo
                0x08001218       0x34 Src/main.o
                0x08001218                setTransVelo
 .text.startup.main
                0x0800124c       0xb4 Src/main.o
                0x0800124c                main
 .text.MotorReg
                0x08001300       0xdc Src/main.o
                0x08001300                MotorReg
 *fill*         0x080013dc        0x4 
 .text.TransProfile
                0x080013e0      0x100 Src/main.o
                0x080013e0                TransProfile
 .text.HAL_TIM_PeriodElapsedCallback
                0x080014e0       0x3c Src/main.o
                0x080014e0                HAL_TIM_PeriodElapsedCallback
 .text.Error_Handler
                0x0800151c        0x2 Src/main.o
                0x0800151c                Error_Handler
 .text.HAL_MspInit
                0x0800151e       0x60 Src/stm32f4xx_hal_msp.o
                0x0800151e                HAL_MspInit
 .text.NMI_Handler
                0x0800157e        0x2 Src/stm32f4xx_it.o
                0x0800157e                NMI_Handler
 .text.HardFault_Handler
                0x08001580        0x2 Src/stm32f4xx_it.o
                0x08001580                HardFault_Handler
 .text.MemManage_Handler
                0x08001582        0x2 Src/stm32f4xx_it.o
                0x08001582                MemManage_Handler
 .text.BusFault_Handler
                0x08001584        0x2 Src/stm32f4xx_it.o
                0x08001584                BusFault_Handler
 .text.UsageFault_Handler
                0x08001586        0x2 Src/stm32f4xx_it.o
                0x08001586                UsageFault_Handler
 .text.SVC_Handler
                0x08001588        0x2 Src/stm32f4xx_it.o
                0x08001588                SVC_Handler
 .text.DebugMon_Handler
                0x0800158a        0x2 Src/stm32f4xx_it.o
                0x0800158a                DebugMon_Handler
 .text.PendSV_Handler
                0x0800158c        0x2 Src/stm32f4xx_it.o
                0x0800158c                PendSV_Handler
 .text.SysTick_Handler
                0x0800158e        0xe Src/stm32f4xx_it.o
                0x0800158e                SysTick_Handler
 .text.TIM6_DAC_IRQHandler
                0x0800159c        0xc Src/stm32f4xx_it.o
                0x0800159c                TIM6_DAC_IRQHandler
 .text.TIM7_IRQHandler
                0x080015a8        0xc Src/stm32f4xx_it.o
                0x080015a8                TIM7_IRQHandler
 .text.DMA2_Stream0_IRQHandler
                0x080015b4        0xc Src/stm32f4xx_it.o
                0x080015b4                DMA2_Stream0_IRQHandler
 .text.SystemInit
                0x080015c0       0x4c Src/system_stm32f4xx.o
                0x080015c0                SystemInit
 .text.MX_TIM1_Init
                0x0800160c       0x58 Src/tim.o
                0x0800160c                MX_TIM1_Init
 .text.MX_TIM4_Init
                0x08001664       0x58 Src/tim.o
                0x08001664                MX_TIM4_Init
 .text.MX_TIM6_Init
                0x080016bc       0x40 Src/tim.o
                0x080016bc                MX_TIM6_Init
 .text.MX_TIM7_Init
                0x080016fc       0x40 Src/tim.o
                0x080016fc                MX_TIM7_Init
 .text.HAL_TIM_Encoder_MspInit
                0x0800173c       0x88 Src/tim.o
                0x0800173c                HAL_TIM_Encoder_MspInit
 .text.HAL_TIM_PWM_MspInit
                0x080017c4       0x50 Src/tim.o
                0x080017c4                HAL_TIM_PWM_MspInit
 .text.HAL_TIM_Base_MspInit
                0x08001814       0x6c Src/tim.o
                0x08001814                HAL_TIM_Base_MspInit
 .text.HAL_TIM_MspPostInit
                0x08001880       0x54 Src/tim.o
                0x08001880                HAL_TIM_MspPostInit
 .text.MX_TIM2_Init
                0x080018d4       0x74 Src/tim.o
                0x080018d4                MX_TIM2_Init
 .text.MX_TIM3_Init
                0x08001948       0x68 Src/tim.o
                0x08001948                MX_TIM3_Init
 .text.HAL_InitTick
                0x080019b0       0x28 Drivers/STM32F4xx_HAL_Driver/Src/stm32f4xx_hal.o
                0x080019b0                HAL_InitTick
 .text.HAL_Init
                0x080019d8       0x34 Drivers/STM32F4xx_HAL_Driver/Src/stm32f4xx_hal.o
                0x080019d8                HAL_Init
 .text.HAL_IncTick
                0x08001a0c       0x10 Drivers/STM32F4xx_HAL_Driver/Src/stm32f4xx_hal.o
                0x08001a0c                HAL_IncTick
 .text.HAL_GetTick
                0x08001a1c        0xc Drivers/STM32F4xx_HAL_Driver/Src/stm32f4xx_hal.o
                0x08001a1c                HAL_GetTick
 .text.HAL_ADC_Init
                0x08001a28      0x154 Drivers/STM32F4xx_HAL_Driver/Src/stm32f4xx_hal_adc.o
                0x08001a28                HAL_ADC_Init
 .text.HAL_ADC_Start_DMA
                0x08001b7c       0xfc Drivers/STM32F4xx_HAL_Driver/Src/stm32f4xx_hal_adc.o
                0x08001b7c                HAL_ADC_Start_DMA
 .text.HAL_ADC_ConvCpltCallback
                0x08001c78        0x2 Drivers/STM32F4xx_HAL_Driver/Src/stm32f4xx_hal_adc.o
                0x08001c78                HAL_ADC_ConvCpltCallback
 .text.ADC_DMAConvCplt
                0x08001c7a       0x60 Drivers/STM32F4xx_HAL_Driver/Src/stm32f4xx_hal_adc.o
 .text.HAL_ADC_ConvHalfCpltCallback
                0x08001cda        0x2 Drivers/STM32F4xx_HAL_Driver/Src/stm32f4xx_hal_adc.o
                0x08001cda                HAL_ADC_ConvHalfCpltCallback
 .text.ADC_DMAHalfConvCplt
                0x08001cdc        0xa Drivers/STM32F4xx_HAL_Driver/Src/stm32f4xx_hal_adc.o
 .text.HAL_ADC_ErrorCallback
                0x08001ce6        0x2 Drivers/STM32F4xx_HAL_Driver/Src/stm32f4xx_hal_adc.o
                0x08001ce6                HAL_ADC_ErrorCallback
 .text.ADC_DMAError
                0x08001ce8       0x16 Drivers/STM32F4xx_HAL_Driver/Src/stm32f4xx_hal_adc.o
 *fill*         0x08001cfe        0x2 
 .text.HAL_ADC_ConfigChannel
                0x08001d00      0x120 Drivers/STM32F4xx_HAL_Driver/Src/stm32f4xx_hal_adc.o
                0x08001d00                HAL_ADC_ConfigChannel
 .text.HAL_NVIC_SetPriorityGrouping
                0x08001e20       0x24 Drivers/STM32F4xx_HAL_Driver/Src/stm32f4xx_hal_cortex.o
                0x08001e20                HAL_NVIC_SetPriorityGrouping
 .text.HAL_NVIC_SetPriority
                0x08001e44       0x60 Drivers/STM32F4xx_HAL_Driver/Src/stm32f4xx_hal_cortex.o
                0x08001e44                HAL_NVIC_SetPriority
 .text.HAL_NVIC_EnableIRQ
                0x08001ea4       0x18 Drivers/STM32F4xx_HAL_Driver/Src/stm32f4xx_hal_cortex.o
                0x08001ea4                HAL_NVIC_EnableIRQ
 .text.HAL_SYSTICK_Config
                0x08001ebc       0x2c Drivers/STM32F4xx_HAL_Driver/Src/stm32f4xx_hal_cortex.o
                0x08001ebc                HAL_SYSTICK_Config
 .text.HAL_SYSTICK_CLKSourceConfig
                0x08001ee8       0x18 Drivers/STM32F4xx_HAL_Driver/Src/stm32f4xx_hal_cortex.o
                0x08001ee8                HAL_SYSTICK_CLKSourceConfig
 .text.HAL_SYSTICK_Callback
                0x08001f00        0x2 Drivers/STM32F4xx_HAL_Driver/Src/stm32f4xx_hal_cortex.o
                0x08001f00                HAL_SYSTICK_Callback
 .text.HAL_SYSTICK_IRQHandler
                0x08001f02        0x8 Drivers/STM32F4xx_HAL_Driver/Src/stm32f4xx_hal_cortex.o
                0x08001f02                HAL_SYSTICK_IRQHandler
 *fill*         0x08001f0a        0x2 
 .text.DMA_CalcBaseAndBitshift
                0x08001f0c       0x2c Drivers/STM32F4xx_HAL_Driver/Src/stm32f4xx_hal_dma.o
 .text.HAL_DMA_Init
                0x08001f38       0xec Drivers/STM32F4xx_HAL_Driver/Src/stm32f4xx_hal_dma.o
                0x08001f38                HAL_DMA_Init
 .text.HAL_DMA_Start_IT
                0x08002024       0x7c Drivers/STM32F4xx_HAL_Driver/Src/stm32f4xx_hal_dma.o
                0x08002024                HAL_DMA_Start_IT
 .text.HAL_DMA_IRQHandler
                0x080020a0      0x17c Drivers/STM32F4xx_HAL_Driver/Src/stm32f4xx_hal_dma.o
                0x080020a0                HAL_DMA_IRQHandler
 .text.HAL_GPIO_Init
                0x0800221c      0x1c8 Drivers/STM32F4xx_HAL_Driver/Src/stm32f4xx_hal_gpio.o
                0x0800221c                HAL_GPIO_Init
 .text.HAL_GPIO_WritePin
                0x080023e4        0x8 Drivers/STM32F4xx_HAL_Driver/Src/stm32f4xx_hal_gpio.o
                0x080023e4                HAL_GPIO_WritePin
 .text.HAL_GPIO_TogglePin
                0x080023ec        0x8 Drivers/STM32F4xx_HAL_Driver/Src/stm32f4xx_hal_gpio.o
                0x080023ec                HAL_GPIO_TogglePin
 .text.HAL_I2C_Init
                0x080023f4       0xdc Drivers/STM32F4xx_HAL_Driver/Src/stm32f4xx_hal_i2c.o
                0x080023f4                HAL_I2C_Init
 .text.HAL_RCC_OscConfig
                0x080024d0      0x314 Drivers/STM32F4xx_HAL_Driver/Src/stm32f4xx_hal_rcc.o
                0x080024d0                HAL_RCC_OscConfig
 .text.HAL_RCC_GetSysClockFreq
                0x080027e4       0x80 Drivers/STM32F4xx_HAL_Driver/Src/stm32f4xx_hal_rcc.o
                0x080027e4                HAL_RCC_GetSysClockFreq
 .text.HAL_RCC_ClockConfig
                0x08002864      0x174 Drivers/STM32F4xx_HAL_Driver/Src/stm32f4xx_hal_rcc.o
                0x08002864                HAL_RCC_ClockConfig
 .text.HAL_RCC_GetHCLKFreq
                0x080029d8        0xc Drivers/STM32F4xx_HAL_Driver/Src/stm32f4xx_hal_rcc.o
                0x080029d8                HAL_RCC_GetHCLKFreq
 .text.HAL_RCC_GetPCLK1Freq
                0x080029e4       0x30 Drivers/STM32F4xx_HAL_Driver/Src/stm32f4xx_hal_rcc.o
                0x080029e4                HAL_RCC_GetPCLK1Freq
 .text.TIM_OC1_SetConfig
                0x08002a14       0x58 Drivers/STM32F4xx_HAL_Driver/Src/stm32f4xx_hal_tim.o
 .text.TIM_OC3_SetConfig
                0x08002a6c       0x60 Drivers/STM32F4xx_HAL_Driver/Src/stm32f4xx_hal_tim.o
 .text.TIM_OC4_SetConfig
                0x08002acc       0x50 Drivers/STM32F4xx_HAL_Driver/Src/stm32f4xx_hal_tim.o
 .text.HAL_TIM_Base_Start_IT
                0x08002b1c       0x16 Drivers/STM32F4xx_HAL_Driver/Src/stm32f4xx_hal_tim.o
                0x08002b1c                HAL_TIM_Base_Start_IT
 .text.HAL_TIM_Encoder_Start
                0x08002b32       0x46 Drivers/STM32F4xx_HAL_Driver/Src/stm32f4xx_hal_tim.o
                0x08002b32                HAL_TIM_Encoder_Start
 .text.HAL_TIM_OC_DelayElapsedCallback
                0x08002b78        0x2 Drivers/STM32F4xx_HAL_Driver/Src/stm32f4xx_hal_tim.o
                0x08002b78                HAL_TIM_OC_DelayElapsedCallback
 .text.HAL_TIM_IC_CaptureCallback
                0x08002b7a        0x2 Drivers/STM32F4xx_HAL_Driver/Src/stm32f4xx_hal_tim.o
                0x08002b7a                HAL_TIM_IC_CaptureCallback
 .text.HAL_TIM_PWM_PulseFinishedCallback
                0x08002b7c        0x2 Drivers/STM32F4xx_HAL_Driver/Src/stm32f4xx_hal_tim.o
                0x08002b7c                HAL_TIM_PWM_PulseFinishedCallback
 .text.HAL_TIM_TriggerCallback
                0x08002b7e        0x2 Drivers/STM32F4xx_HAL_Driver/Src/stm32f4xx_hal_tim.o
                0x08002b7e                HAL_TIM_TriggerCallback
 .text.HAL_TIM_IRQHandler
                0x08002b80      0x144 Drivers/STM32F4xx_HAL_Driver/Src/stm32f4xx_hal_tim.o
                0x08002b80                HAL_TIM_IRQHandler
 .text.TIM_Base_SetConfig
                0x08002cc4       0xc8 Drivers/STM32F4xx_HAL_Driver/Src/stm32f4xx_hal_tim.o
                0x08002cc4                TIM_Base_SetConfig
 .text.HAL_TIM_Base_Init
                0x08002d8c       0x34 Drivers/STM32F4xx_HAL_Driver/Src/stm32f4xx_hal_tim.o
                0x08002d8c                HAL_TIM_Base_Init
 .text.HAL_TIM_PWM_Init
                0x08002dc0       0x34 Drivers/STM32F4xx_HAL_Driver/Src/stm32f4xx_hal_tim.o
                0x08002dc0                HAL_TIM_PWM_Init
 .text.HAL_TIM_Encoder_Init
                0x08002df4       0x92 Drivers/STM32F4xx_HAL_Driver/Src/stm32f4xx_hal_tim.o
                0x08002df4                HAL_TIM_Encoder_Init
 *fill*         0x08002e86        0x2 
 .text.TIM_OC2_SetConfig
                0x08002e88       0x64 Drivers/STM32F4xx_HAL_Driver/Src/stm32f4xx_hal_tim.o
                0x08002e88                TIM_OC2_SetConfig
 .text.HAL_TIM_PWM_ConfigChannel
                0x08002eec       0xc6 Drivers/STM32F4xx_HAL_Driver/Src/stm32f4xx_hal_tim.o
                0x08002eec                HAL_TIM_PWM_ConfigChannel
 .text.TIM_CCxChannelCmd
                0x08002fb2       0x18 Drivers/STM32F4xx_HAL_Driver/Src/stm32f4xx_hal_tim.o
                0x08002fb2                TIM_CCxChannelCmd
 *fill*         0x08002fca        0x2 
 .text.HAL_TIM_PWM_Start
                0x08002fcc       0x34 Drivers/STM32F4xx_HAL_Driver/Src/stm32f4xx_hal_tim.o
                0x08002fcc                HAL_TIM_PWM_Start
 .text.HAL_TIMEx_MasterConfigSynchronization
                0x08003000       0x44 Drivers/STM32F4xx_HAL_Driver/Src/stm32f4xx_hal_tim_ex.o
                0x08003000                HAL_TIMEx_MasterConfigSynchronization
 .text.HAL_TIMEx_CommutationCallback
                0x08003044        0x2 Drivers/STM32F4xx_HAL_Driver/Src/stm32f4xx_hal_tim_ex.o
                0x08003044                HAL_TIMEx_CommutationCallback
 .text.HAL_TIMEx_BreakCallback
                0x08003046        0x2 Drivers/STM32F4xx_HAL_Driver/Src/stm32f4xx_hal_tim_ex.o
                0x08003046                HAL_TIMEx_BreakCallback
 .text.Reset_Handler
                0x08003048       0x50 Drivers/CMSIS/Device/ST/STM32F4xx/Source/Templates/gcc/startup_stm32f405xx.o
                0x08003048                Reset_Handler
 .text.Default_Handler
                0x08003098        0x2 Drivers/CMSIS/Device/ST/STM32F4xx/Source/Templates/gcc/startup_stm32f405xx.o
                0x08003098                RTC_Alarm_IRQHandler
                0x08003098                HASH_RNG_IRQHandler
                0x08003098                EXTI2_IRQHandler
                0x08003098                TIM8_CC_IRQHandler
                0x08003098                TIM1_CC_IRQHandler
                0x08003098                DMA2_Stream5_IRQHandler
                0x08003098                DMA1_Stream5_IRQHandler
                0x08003098                PVD_IRQHandler
                0x08003098                SDIO_IRQHandler
                0x08003098                TAMP_STAMP_IRQHandler
                0x08003098                CAN2_RX1_IRQHandler
                0x08003098                EXTI3_IRQHandler
                0x08003098                TIM8_TRG_COM_TIM14_IRQHandler
                0x08003098                TIM1_UP_TIM10_IRQHandler
                0x08003098                TIM8_UP_TIM13_IRQHandler
                0x08003098                I2C3_ER_IRQHandler
                0x08003098                EXTI0_IRQHandler
                0x08003098                I2C2_EV_IRQHandler
                0x08003098                DMA1_Stream2_IRQHandler
                0x08003098                CAN1_RX0_IRQHandler
                0x08003098                FPU_IRQHandler
                0x08003098                OTG_HS_WKUP_IRQHandler
                0x08003098                CAN2_SCE_IRQHandler
                0x08003098                DMA2_Stream2_IRQHandler
                0x08003098                SPI1_IRQHandler
                0x08003098                TIM1_BRK_TIM9_IRQHandler
                0x08003098                CAN2_RX0_IRQHandler
                0x08003098                DMA2_Stream3_IRQHandler
                0x08003098                USART6_IRQHandler
                0x08003098                USART3_IRQHandler
                0x08003098                CAN1_RX1_IRQHandler
                0x08003098                UART5_IRQHandler
                0x08003098                TIM4_IRQHandler
                0x08003098                I2C1_EV_IRQHandler
                0x08003098                DMA1_Stream6_IRQHandler
                0x08003098                DMA1_Stream1_IRQHandler
                0x08003098                UART4_IRQHandler
                0x08003098                TIM3_IRQHandler
                0x08003098                RCC_IRQHandler
                0x08003098                TIM8_BRK_TIM12_IRQHandler
                0x08003098                Default_Handler
                0x08003098                EXTI15_10_IRQHandler
                0x08003098                ADC_IRQHandler
                0x08003098                DMA1_Stream7_IRQHandler
                0x08003098                CAN2_TX_IRQHandler
                0x08003098                TIM5_IRQHandler
                0x08003098                DMA2_Stream7_IRQHandler
                0x08003098                I2C3_EV_IRQHandler
                0x08003098                EXTI9_5_IRQHandler
                0x08003098                RTC_WKUP_IRQHandler
                0x08003098                SPI2_IRQHandler
                0x08003098                OTG_HS_EP1_IN_IRQHandler
                0x08003098                DMA1_Stream0_IRQHandler
                0x08003098                CAN1_TX_IRQHandler
                0x08003098                EXTI4_IRQHandler
                0x08003098                FSMC_IRQHandler
                0x08003098                OTG_HS_EP1_OUT_IRQHandler
                0x08003098                WWDG_IRQHandler
                0x08003098                TIM2_IRQHandler
                0x08003098                OTG_FS_WKUP_IRQHandler
                0x08003098                TIM1_TRG_COM_TIM11_IRQHandler
                0x08003098                OTG_HS_IRQHandler
                0x08003098                EXTI1_IRQHandler
                0x08003098                USART2_IRQHandler
                0x08003098                I2C2_ER_IRQHandler
                0x08003098                DMA2_Stream1_IRQHandler
                0x08003098                CAN1_SCE_IRQHandler
                0x08003098                FLASH_IRQHandler
                0x08003098                DMA2_Stream4_IRQHandler
                0x08003098                USART1_IRQHandler
                0x08003098                OTG_FS_IRQHandler
                0x08003098                SPI3_IRQHandler
                0x08003098                DMA1_Stream4_IRQHandler
                0x08003098                I2C1_ER_IRQHandler
                0x08003098                DMA2_Stream6_IRQHandler
                0x08003098                DMA1_Stream3_IRQHandler
 *fill*         0x0800309a        0x2 
 .text.__libc_init_array
                0x0800309c       0x4c d:/uc/sw4stm32/plugins/fr.ac6.mcu.externaltools.arm-none.win32_1.3.0.201507241045/tools/compiler/bin/../lib/gcc/arm-none-eabi/4.9.3/../../../../arm-none-eabi/lib/armv7e-m/fpu\libc_nano.a(lib_a-init.o)
                0x0800309c                __libc_init_array
 *(.glue_7)
 .glue_7        0x00000000        0x0 linker stubs
 *(.glue_7t)
 .glue_7t       0x00000000        0x0 linker stubs
 *(.eh_frame)
 .eh_frame      0x080030e8        0x0 d:/uc/sw4stm32/plugins/fr.ac6.mcu.externaltools.arm-none.win32_1.3.0.201507241045/tools/compiler/bin/../lib/gcc/arm-none-eabi/4.9.3/armv7e-m/fpu/crtbegin.o
 *(.init)
 .init          0x080030e8        0x4 d:/uc/sw4stm32/plugins/fr.ac6.mcu.externaltools.arm-none.win32_1.3.0.201507241045/tools/compiler/bin/../lib/gcc/arm-none-eabi/4.9.3/armv7e-m/fpu/crti.o
                0x080030e8                _init
 .init          0x080030ec        0x8 d:/uc/sw4stm32/plugins/fr.ac6.mcu.externaltools.arm-none.win32_1.3.0.201507241045/tools/compiler/bin/../lib/gcc/arm-none-eabi/4.9.3/armv7e-m/fpu/crtn.o
 *(.fini)
 .fini          0x080030f4        0x4 d:/uc/sw4stm32/plugins/fr.ac6.mcu.externaltools.arm-none.win32_1.3.0.201507241045/tools/compiler/bin/../lib/gcc/arm-none-eabi/4.9.3/armv7e-m/fpu/crti.o
                0x080030f4                _fini
 .fini          0x080030f8        0x8 d:/uc/sw4stm32/plugins/fr.ac6.mcu.externaltools.arm-none.win32_1.3.0.201507241045/tools/compiler/bin/../lib/gcc/arm-none-eabi/4.9.3/armv7e-m/fpu/crtn.o
                0x08003100                . = ALIGN (0x4)
                0x08003100                _etext = .

.vfp11_veneer   0x08003100        0x0
 .vfp11_veneer  0x00000000        0x0 linker stubs

.v4_bx          0x08003100        0x0
 .v4_bx         0x00000000        0x0 linker stubs

.iplt           0x08003100        0x0
 .iplt          0x00000000        0x0 d:/uc/sw4stm32/plugins/fr.ac6.mcu.externaltools.arm-none.win32_1.3.0.201507241045/tools/compiler/bin/../lib/gcc/arm-none-eabi/4.9.3/armv7e-m/fpu/crtbegin.o

.rodata         0x08003100       0x18
                0x08003100                . = ALIGN (0x4)
 *(.rodata)
 .rodata        0x08003100        0x8 Drivers/STM32F4xx_HAL_Driver/Src/stm32f4xx_hal_dma.o
 .rodata        0x08003108       0x10 Drivers/STM32F4xx_HAL_Driver/Src/stm32f4xx_hal_rcc.o
                0x08003108                APBAHBPrescTable
 *(.rodata*)
                0x08003118                . = ALIGN (0x4)

.rel.dyn        0x08003118        0x0
 .rel.iplt      0x00000000        0x0 d:/uc/sw4stm32/plugins/fr.ac6.mcu.externaltools.arm-none.win32_1.3.0.201507241045/tools/compiler/bin/../lib/gcc/arm-none-eabi/4.9.3/armv7e-m/fpu/crtbegin.o

.ARM.extab
 *(.ARM.extab* .gnu.linkonce.armextab.*)

.ARM            0x08003118        0x0
                0x08003118                __exidx_start = .
 *(.ARM.exidx*)
                0x08003118                __exidx_end = .

.preinit_array  0x08003118        0x0
                0x08003118                PROVIDE (__preinit_array_start, .)
 *(.preinit_array*)
                0x08003118                PROVIDE (__preinit_array_end, .)

.init_array     0x08003118        0x4
                0x08003118                PROVIDE (__init_array_start, .)
 *(SORT(.init_array.*))
 *(.init_array*)
 .init_array    0x08003118        0x4 d:/uc/sw4stm32/plugins/fr.ac6.mcu.externaltools.arm-none.win32_1.3.0.201507241045/tools/compiler/bin/../lib/gcc/arm-none-eabi/4.9.3/armv7e-m/fpu/crtbegin.o
                0x0800311c                PROVIDE (__init_array_end, .)

.fini_array     0x0800311c        0x4
                0x0800311c                PROVIDE (__fini_array_start, .)
 *(SORT(.fini_array.*))
 *(.fini_array*)
 .fini_array    0x0800311c        0x4 d:/uc/sw4stm32/plugins/fr.ac6.mcu.externaltools.arm-none.win32_1.3.0.201507241045/tools/compiler/bin/../lib/gcc/arm-none-eabi/4.9.3/armv7e-m/fpu/crtbegin.o
                0x08003120                PROVIDE (__fini_array_end, .)
                0x08003120                _sidata = LOADADDR (.data)

.data           0x20000000       0x20 load address 0x08003120
                0x20000000                . = ALIGN (0x4)
                0x20000000                _sdata = .
 *(.data)
 .data          0x20000000       0x1c Src/main.o
                0x20000000                IseeLeftWall
                0x20000004                IseeRightWall
                0x20000008                STOP
                0x2000000c                kpX
                0x20000010                kdX
                0x20000014                kpW
                0x20000018                kdW
 .data          0x2000001c        0x4 Src/system_stm32f4xx.o
                0x2000001c                SystemCoreClock
 *(.data*)
                0x20000020                . = ALIGN (0x4)
                0x20000020                _edata = .
                0x08003140                _siccmram = LOADADDR (.ccmram)

.jcr            0x20000020        0x0 load address 0x08003140
 .jcr           0x20000020        0x0 d:/uc/sw4stm32/plugins/fr.ac6.mcu.externaltools.arm-none.win32_1.3.0.201507241045/tools/compiler/bin/../lib/gcc/arm-none-eabi/4.9.3/armv7e-m/fpu/crtbegin.o

.igot.plt       0x20000020        0x0 load address 0x08003140
 .igot.plt      0x00000000        0x0 d:/uc/sw4stm32/plugins/fr.ac6.mcu.externaltools.arm-none.win32_1.3.0.201507241045/tools/compiler/bin/../lib/gcc/arm-none-eabi/4.9.3/armv7e-m/fpu/crtbegin.o

.ccmram         0x10000000        0x0 load address 0x08003140
                0x10000000                . = ALIGN (0x4)
                0x10000000                _sccmram = .
 *(.ccmram)
 *(.ccmram*)
                0x10000000                . = ALIGN (0x4)
                0x10000000                _eccmram = .
                0x10000000                . = ALIGN (0x4)

.bss            0x20000020      0x324
                0x20000020                _sbss = .
                0x20000020                __bss_start__ = _sbss
 *(.bss)
 .bss           0x20000020       0x1c d:/uc/sw4stm32/plugins/fr.ac6.mcu.externaltools.arm-none.win32_1.3.0.201507241045/tools/compiler/bin/../lib/gcc/arm-none-eabi/4.9.3/armv7e-m/fpu/crtbegin.o
 .bss           0x2000003c       0xa0 Src/main.o
                0x2000003c                cnt_LED
                0x20000040                EncL
                0x20000044                EncP
                0x20000048                EncL_prev
                0x2000004c                EncL_change
                0x20000050                EncP_prev
                0x20000054                EncP_change
                0x20000058                EncLP_change
                0x2000005c                EncLProt_change
                0x20000060                leftEncCnt
                0x20000064                rightEncCnt
                0x20000068                averageCnt
                0x2000006c                cntLeftToTarget
                0x20000070                cntLeftRot
                0x20000074                sens_cnt
                0x20000078                FrontL
                0x2000007c                sensors_value
                0x20000094                FrontP
                0x20000098                DiagL
                0x2000009c                DiagP
                0x200000a0                SideL
                0x200000a4                SideP
                0x200000a8                sensorError
                0x200000ac                TransVelo
                0x200000b0                RotVelo
                0x200000b4                ErrorX
                0x200000b8                currTransVelo
                0x200000bc                ErrorW
                0x200000c0                currRotVelo
                0x200000c4                ErrorX_prev
                0x200000c8                pwmX
                0x200000cc                ErrorW_prev
                0x200000d0                pwmW
                0x200000d4                timeToStop
                0x200000d8                CNT_DELAY
 *(.bss*)
 *(COMMON)
 COMMON         0x200000dc       0xa8 Src/adc.o
                0x200000dc                hadc1
                0x20000124                hdma_adc1
 COMMON         0x20000184       0x54 Src/i2c.o
                0x20000184                hi2c1
 COMMON         0x200001d8      0x168 Src/tim.o
                0x200001d8                htim4
                0x20000214                htim3
                0x20000250                htim6
                0x2000028c                htim1
                0x200002c8                htim2
                0x20000304                htim7
 COMMON         0x20000340        0x4 Drivers/STM32F4xx_HAL_Driver/Src/stm32f4xx_hal.o
                0x20000340                uwTick
                0x20000344                . = ALIGN (0x4)
                0x20000344                _ebss = .
                0x20000344                __bss_end__ = _ebss

._user_heap_stack
                0x20000344      0x604
                0x20000348                . = ALIGN (0x8)
 *fill*         0x20000344        0x4 
                0x20000348                PROVIDE (end, .)
                0x20000348                PROVIDE (_end, .)
                0x20000548                . = (. + _Min_Heap_Size)
 *fill*         0x20000348      0x200 
                0x20000948                . = (. + _Min_Stack_Size)
 *fill*         0x20000548      0x400 
                0x20000948                . = ALIGN (0x8)

/DISCARD/
 libc.a(*)
 libm.a(*)
 libgcc.a(*)

.ARM.attributes
                0x00000000       0x30
 *(.ARM.attributes)
 .ARM.attributes
                0x00000000       0x22 d:/uc/sw4stm32/plugins/fr.ac6.mcu.externaltools.arm-none.win32_1.3.0.201507241045/tools/compiler/bin/../lib/gcc/arm-none-eabi/4.9.3/armv7e-m/fpu/crti.o
 .ARM.attributes
                0x00000022       0x34 d:/uc/sw4stm32/plugins/fr.ac6.mcu.externaltools.arm-none.win32_1.3.0.201507241045/tools/compiler/bin/../lib/gcc/arm-none-eabi/4.9.3/armv7e-m/fpu/crtbegin.o
 .ARM.attributes
                0x00000056       0x39 Src/adc.o
 .ARM.attributes
                0x0000008f       0x39 Src/dma.o
 .ARM.attributes
                0x000000c8       0x39 Src/floodfill.o
 .ARM.attributes
                0x00000101       0x39 Src/gpio.o
 .ARM.attributes
                0x0000013a       0x39 Src/i2c.o
 .ARM.attributes
                0x00000173       0x39 Src/main.o
 .ARM.attributes
                0x000001ac       0x39 Src/stm32f4xx_hal_msp.o
 .ARM.attributes
                0x000001e5       0x39 Src/stm32f4xx_it.o
 .ARM.attributes
                0x0000021e       0x39 Src/system_stm32f4xx.o
 .ARM.attributes
                0x00000257       0x39 Src/tim.o
 .ARM.attributes
                0x00000290       0x39 Drivers/STM32F4xx_HAL_Driver/Src/stm32f4xx_hal.o
 .ARM.attributes
                0x000002c9       0x39 Drivers/STM32F4xx_HAL_Driver/Src/stm32f4xx_hal_adc.o
 .ARM.attributes
                0x00000302       0x39 Drivers/STM32F4xx_HAL_Driver/Src/stm32f4xx_hal_cortex.o
 .ARM.attributes
                0x0000033b       0x39 Drivers/STM32F4xx_HAL_Driver/Src/stm32f4xx_hal_dma.o
 .ARM.attributes
                0x00000374       0x39 Drivers/STM32F4xx_HAL_Driver/Src/stm32f4xx_hal_gpio.o
 .ARM.attributes
                0x000003ad       0x39 Drivers/STM32F4xx_HAL_Driver/Src/stm32f4xx_hal_i2c.o
 .ARM.attributes
                0x000003e6       0x39 Drivers/STM32F4xx_HAL_Driver/Src/stm32f4xx_hal_rcc.o
 .ARM.attributes
                0x0000041f       0x39 Drivers/STM32F4xx_HAL_Driver/Src/stm32f4xx_hal_tim.o
 .ARM.attributes
                0x00000458       0x39 Drivers/STM32F4xx_HAL_Driver/Src/stm32f4xx_hal_tim_ex.o
 .ARM.attributes
                0x00000491       0x21 Drivers/CMSIS/Device/ST/STM32F4xx/Source/Templates/gcc/startup_stm32f405xx.o
 .ARM.attributes
                0x000004b2       0x22 d:/uc/sw4stm32/plugins/fr.ac6.mcu.externaltools.arm-none.win32_1.3.0.201507241045/tools/compiler/bin/../lib/gcc/arm-none-eabi/4.9.3/armv7e-m/fpu\libgcc.a(_arm_addsubdf3.o)
 .ARM.attributes
                0x000004d4       0x22 d:/uc/sw4stm32/plugins/fr.ac6.mcu.externaltools.arm-none.win32_1.3.0.201507241045/tools/compiler/bin/../lib/gcc/arm-none-eabi/4.9.3/armv7e-m/fpu\libgcc.a(_arm_muldivdf3.o)
 .ARM.attributes
                0x000004f6       0x22 d:/uc/sw4stm32/plugins/fr.ac6.mcu.externaltools.arm-none.win32_1.3.0.201507241045/tools/compiler/bin/../lib/gcc/arm-none-eabi/4.9.3/armv7e-m/fpu\libgcc.a(_arm_truncdfsf2.o)
 .ARM.attributes
                0x00000518       0x34 d:/uc/sw4stm32/plugins/fr.ac6.mcu.externaltools.arm-none.win32_1.3.0.201507241045/tools/compiler/bin/../lib/gcc/arm-none-eabi/4.9.3/../../../../arm-none-eabi/lib/armv7e-m/fpu\libc_nano.a(lib_a-init.o)
 .ARM.attributes
                0x0000054c       0x22 d:/uc/sw4stm32/plugins/fr.ac6.mcu.externaltools.arm-none.win32_1.3.0.201507241045/tools/compiler/bin/../lib/gcc/arm-none-eabi/4.9.3/armv7e-m/fpu/crtn.o
OUTPUT(CalvinCode.elf elf32-littlearm)

.debug_info     0x00000000    0x11808
 .debug_info    0x00000000      0xb01 Src/adc.o
 .debug_info    0x00000b01      0x512 Src/dma.o
 .debug_info    0x00001013       0xec Src/floodfill.o
 .debug_info    0x000010ff      0x54b Src/gpio.o
 .debug_info    0x0000164a      0x9b0 Src/i2c.o
 .debug_info    0x00001ffa     0x1ba4 Src/main.o
 .debug_info    0x00003b9e      0x3fd Src/stm32f4xx_hal_msp.o
 .debug_info    0x00003f9b      0x6c8 Src/stm32f4xx_it.o
 .debug_info    0x00004663      0x4cf Src/system_stm32f4xx.o
 .debug_info    0x00004b32     0x12d4 Src/tim.o
 .debug_info    0x00005e06      0x8fc Drivers/STM32F4xx_HAL_Driver/Src/stm32f4xx_hal.o
 .debug_info    0x00006702      0xd89 Drivers/STM32F4xx_HAL_Driver/Src/stm32f4xx_hal_adc.o
 .debug_info    0x0000748b      0xe50 Drivers/STM32F4xx_HAL_Driver/Src/stm32f4xx_hal_cortex.o
 .debug_info    0x000082db      0xa06 Drivers/STM32F4xx_HAL_Driver/Src/stm32f4xx_hal_dma.o
 .debug_info    0x00008ce1      0x712 Drivers/STM32F4xx_HAL_Driver/Src/stm32f4xx_hal_gpio.o
 .debug_info    0x000093f3     0x3010 Drivers/STM32F4xx_HAL_Driver/Src/stm32f4xx_hal_i2c.o
 .debug_info    0x0000c403      0xcc7 Drivers/STM32F4xx_HAL_Driver/Src/stm32f4xx_hal_rcc.o
 .debug_info    0x0000d0ca     0x3413 Drivers/STM32F4xx_HAL_Driver/Src/stm32f4xx_hal_tim.o
 .debug_info    0x000104dd     0x127a Drivers/STM32F4xx_HAL_Driver/Src/stm32f4xx_hal_tim_ex.o
 .debug_info    0x00011757       0xb1 Drivers/CMSIS/Device/ST/STM32F4xx/Source/Templates/gcc/startup_stm32f405xx.o

.debug_abbrev   0x00000000     0x2950
 .debug_abbrev  0x00000000      0x1dc Src/adc.o
 .debug_abbrev  0x000001dc      0x133 Src/dma.o
 .debug_abbrev  0x0000030f       0x8f Src/floodfill.o
 .debug_abbrev  0x0000039e      0x161 Src/gpio.o
 .debug_abbrev  0x000004ff      0x1ea Src/i2c.o
 .debug_abbrev  0x000006e9      0x377 Src/main.o
 .debug_abbrev  0x00000a60       0xd4 Src/stm32f4xx_hal_msp.o
 .debug_abbrev  0x00000b34      0x1ac Src/stm32f4xx_it.o
 .debug_abbrev  0x00000ce0      0x104 Src/system_stm32f4xx.o
 .debug_abbrev  0x00000de4      0x2c6 Src/tim.o
 .debug_abbrev  0x000010aa      0x25b Drivers/STM32F4xx_HAL_Driver/Src/stm32f4xx_hal.o
 .debug_abbrev  0x00001305      0x2a3 Drivers/STM32F4xx_HAL_Driver/Src/stm32f4xx_hal_adc.o
 .debug_abbrev  0x000015a8      0x30d Drivers/STM32F4xx_HAL_Driver/Src/stm32f4xx_hal_cortex.o
 .debug_abbrev  0x000018b5      0x2e0 Drivers/STM32F4xx_HAL_Driver/Src/stm32f4xx_hal_dma.o
 .debug_abbrev  0x00001b95      0x1cb Drivers/STM32F4xx_HAL_Driver/Src/stm32f4xx_hal_gpio.o
 .debug_abbrev  0x00001d60      0x32a Drivers/STM32F4xx_HAL_Driver/Src/stm32f4xx_hal_i2c.o
 .debug_abbrev  0x0000208a      0x370 Drivers/STM32F4xx_HAL_Driver/Src/stm32f4xx_hal_rcc.o
 .debug_abbrev  0x000023fa      0x318 Drivers/STM32F4xx_HAL_Driver/Src/stm32f4xx_hal_tim.o
 .debug_abbrev  0x00002712      0x22c Drivers/STM32F4xx_HAL_Driver/Src/stm32f4xx_hal_tim_ex.o
 .debug_abbrev  0x0000293e       0x12 Drivers/CMSIS/Device/ST/STM32F4xx/Source/Templates/gcc/startup_stm32f405xx.o

.debug_loc      0x00000000     0x860c
 .debug_loc     0x00000000       0x63 Src/adc.o
 .debug_loc     0x00000063       0x4d Src/i2c.o
 .debug_loc     0x000000b0      0x27e Src/main.o
 .debug_loc     0x0000032e       0xda Src/system_stm32f4xx.o
 .debug_loc     0x00000408      0x159 Src/tim.o
 .debug_loc     0x00000561       0x90 Drivers/STM32F4xx_HAL_Driver/Src/stm32f4xx_hal.o
 .debug_loc     0x000005f1      0x74f Drivers/STM32F4xx_HAL_Driver/Src/stm32f4xx_hal_adc.o
 .debug_loc     0x00000d40      0x31e Drivers/STM32F4xx_HAL_Driver/Src/stm32f4xx_hal_cortex.o
 .debug_loc     0x0000105e      0x6e2 Drivers/STM32F4xx_HAL_Driver/Src/stm32f4xx_hal_dma.o
 .debug_loc     0x00001740      0x3ec Drivers/STM32F4xx_HAL_Driver/Src/stm32f4xx_hal_gpio.o
 .debug_loc     0x00001b2c     0x2896 Drivers/STM32F4xx_HAL_Driver/Src/stm32f4xx_hal_i2c.o
 .debug_loc     0x000043c2      0x555 Drivers/STM32F4xx_HAL_Driver/Src/stm32f4xx_hal_rcc.o
 .debug_loc     0x00004917     0x32b8 Drivers/STM32F4xx_HAL_Driver/Src/stm32f4xx_hal_tim.o
 .debug_loc     0x00007bcf      0xa3d Drivers/STM32F4xx_HAL_Driver/Src/stm32f4xx_hal_tim_ex.o

.debug_aranges  0x00000000      0xcb8
 .debug_aranges
                0x00000000       0x30 Src/adc.o
 .debug_aranges
                0x00000030       0x20 Src/dma.o
 .debug_aranges
                0x00000050       0x28 Src/floodfill.o
 .debug_aranges
                0x00000078       0x20 Src/gpio.o
 .debug_aranges
                0x00000098       0x30 Src/i2c.o
 .debug_aranges
                0x000000c8       0xa0 Src/main.o
 .debug_aranges
                0x00000168       0x20 Src/stm32f4xx_hal_msp.o
 .debug_aranges
                0x00000188       0x78 Src/stm32f4xx_it.o
 .debug_aranges
                0x00000200       0x28 Src/system_stm32f4xx.o
 .debug_aranges
                0x00000228       0x80 Src/tim.o
 .debug_aranges
                0x000002a8       0xc0 Drivers/STM32F4xx_HAL_Driver/Src/stm32f4xx_hal.o
 .debug_aranges
                0x00000368       0xe0 Drivers/STM32F4xx_HAL_Driver/Src/stm32f4xx_hal_adc.o
 .debug_aranges
                0x00000448       0x98 Drivers/STM32F4xx_HAL_Driver/Src/stm32f4xx_hal_cortex.o
 .debug_aranges
                0x000004e0       0x80 Drivers/STM32F4xx_HAL_Driver/Src/stm32f4xx_hal_dma.o
 .debug_aranges
                0x00000560       0x58 Drivers/STM32F4xx_HAL_Driver/Src/stm32f4xx_hal_gpio.o
 .debug_aranges
                0x000005b8      0x1e0 Drivers/STM32F4xx_HAL_Driver/Src/stm32f4xx_hal_i2c.o
 .debug_aranges
                0x00000798       0x88 Drivers/STM32F4xx_HAL_Driver/Src/stm32f4xx_hal_rcc.o
 .debug_aranges
                0x00000820      0x330 Drivers/STM32F4xx_HAL_Driver/Src/stm32f4xx_hal_tim.o
 .debug_aranges
                0x00000b50      0x140 Drivers/STM32F4xx_HAL_Driver/Src/stm32f4xx_hal_tim_ex.o
 .debug_aranges
                0x00000c90       0x28 Drivers/CMSIS/Device/ST/STM32F4xx/Source/Templates/gcc/startup_stm32f405xx.o

.debug_ranges   0x00000000      0xfa8
 .debug_ranges  0x00000000       0x40 Src/adc.o
 .debug_ranges  0x00000040       0x28 Src/dma.o
 .debug_ranges  0x00000068       0x18 Src/floodfill.o
 .debug_ranges  0x00000080       0x40 Src/gpio.o
 .debug_ranges  0x000000c0       0x20 Src/i2c.o
 .debug_ranges  0x000000e0       0xe0 Src/main.o
 .debug_ranges  0x000001c0       0x10 Src/stm32f4xx_hal_msp.o
 .debug_ranges  0x000001d0       0x68 Src/stm32f4xx_it.o
 .debug_ranges  0x00000238       0x18 Src/system_stm32f4xx.o
 .debug_ranges  0x00000250       0xe0 Src/tim.o
 .debug_ranges  0x00000330       0xb0 Drivers/STM32F4xx_HAL_Driver/Src/stm32f4xx_hal.o
 .debug_ranges  0x000003e0       0xe8 Drivers/STM32F4xx_HAL_Driver/Src/stm32f4xx_hal_adc.o
 .debug_ranges  0x000004c8      0x120 Drivers/STM32F4xx_HAL_Driver/Src/stm32f4xx_hal_cortex.o
 .debug_ranges  0x000005e8       0xa8 Drivers/STM32F4xx_HAL_Driver/Src/stm32f4xx_hal_dma.o
 .debug_ranges  0x00000690       0x48 Drivers/STM32F4xx_HAL_Driver/Src/stm32f4xx_hal_gpio.o
 .debug_ranges  0x000006d8      0x260 Drivers/STM32F4xx_HAL_Driver/Src/stm32f4xx_hal_i2c.o
 .debug_ranges  0x00000938      0x158 Drivers/STM32F4xx_HAL_Driver/Src/stm32f4xx_hal_rcc.o
 .debug_ranges  0x00000a90      0x3c8 Drivers/STM32F4xx_HAL_Driver/Src/stm32f4xx_hal_tim.o
 .debug_ranges  0x00000e58      0x130 Drivers/STM32F4xx_HAL_Driver/Src/stm32f4xx_hal_tim_ex.o
 .debug_ranges  0x00000f88       0x20 Drivers/CMSIS/Device/ST/STM32F4xx/Source/Templates/gcc/startup_stm32f405xx.o

.debug_macro    0x00000000    0x204fd
 .debug_macro   0x00000000      0x2d5 Src/adc.o
 .debug_macro   0x000002d5      0x886 Src/adc.o
 .debug_macro   0x00000b5b      0x14e Src/adc.o
 .debug_macro   0x00000ca9      0x185 Src/adc.o
 .debug_macro   0x00000e2e       0x33 Src/adc.o
 .debug_macro   0x00000e61       0x28 Src/adc.o
 .debug_macro   0x00000e89       0x22 Src/adc.o
 .debug_macro   0x00000eab       0x44 Src/adc.o
 .debug_macro   0x00000eef       0x1c Src/adc.o
 .debug_macro   0x00000f0b      0x1f7 Src/adc.o
 .debug_macro   0x00001102       0x35 Src/adc.o
 .debug_macro   0x00001137       0x50 Src/adc.o
 .debug_macro   0x00001187      0xe66 Src/adc.o
 .debug_macro   0x00001fed    0x14194 Src/adc.o
 .debug_macro   0x00016181       0x43 Src/adc.o
 .debug_macro   0x000161c4     0x347f Src/adc.o
 .debug_macro   0x00019643       0x58 Src/adc.o
 .debug_macro   0x0001969b       0x35 Src/adc.o
 .debug_macro   0x000196d0       0x9c Src/adc.o
 .debug_macro   0x0001976c       0x16 Src/adc.o
 .debug_macro   0x00019782       0x97 Src/adc.o
 .debug_macro   0x00019819      0x29d Src/adc.o
 .debug_macro   0x00019ab6       0xef Src/adc.o
 .debug_macro   0x00019ba5       0x10 Src/adc.o
 .debug_macro   0x00019bb5       0x52 Src/adc.o
 .debug_macro   0x00019c07       0x16 Src/adc.o
 .debug_macro   0x00019c1d       0x43 Src/adc.o
 .debug_macro   0x00019c60      0x180 Src/adc.o
 .debug_macro   0x00019de0       0x10 Src/adc.o
 .debug_macro   0x00019df0       0x22 Src/adc.o
 .debug_macro   0x00019e12       0xbd Src/adc.o
 .debug_macro   0x00019ecf       0x16 Src/adc.o
 .debug_macro   0x00019ee5      0x196 Src/adc.o
 .debug_macro   0x0001a07b       0x50 Src/adc.o
 .debug_macro   0x0001a0cb      0x8a0 Src/adc.o
 .debug_macro   0x0001a96b      0x9e1 Src/adc.o
 .debug_macro   0x0001b34c      0x11e Src/adc.o
 .debug_macro   0x0001b46a      0x130 Src/adc.o
 .debug_macro   0x0001b59a       0x27 Src/adc.o
 .debug_macro   0x0001b5c1      0x287 Src/adc.o
 .debug_macro   0x0001b848       0x5f Src/adc.o
 .debug_macro   0x0001b8a7      0x23a Src/adc.o
 .debug_macro   0x0001bae1      0x391 Src/adc.o
 .debug_macro   0x0001be72      0x16f Src/adc.o
 .debug_macro   0x0001bfe1       0xf9 Src/adc.o
 .debug_macro   0x0001c0da      0x13a Src/adc.o
 .debug_macro   0x0001c214      0x21e Src/adc.o
 .debug_macro   0x0001c432       0x2e Src/adc.o
 .debug_macro   0x0001c460      0x1a7 Src/adc.o
 .debug_macro   0x0001c607       0xa5 Src/adc.o
 .debug_macro   0x0001c6ac      0x11e Src/adc.o
 .debug_macro   0x0001c7ca       0x7f Src/adc.o
 .debug_macro   0x0001c849       0x89 Src/adc.o
 .debug_macro   0x0001c8d2      0x6d9 Src/adc.o
 .debug_macro   0x0001cfab       0x5b Src/adc.o
 .debug_macro   0x0001d006      0x14d Src/adc.o
 .debug_macro   0x0001d153      0x125 Src/adc.o
 .debug_macro   0x0001d278      0x2c1 Src/dma.o
 .debug_macro   0x0001d539       0x15 Src/floodfill.o
 .debug_macro   0x0001d54e      0x2c1 Src/gpio.o
 .debug_macro   0x0001d80f      0x2cb Src/i2c.o
 .debug_macro   0x0001dada      0x33e Src/main.o
 .debug_macro   0x0001de18      0x1e1 Src/main.o
 .debug_macro   0x0001dff9       0x16 Src/main.o
 .debug_macro   0x0001e00f       0x35 Src/main.o
 .debug_macro   0x0001e044       0x16 Src/main.o
 .debug_macro   0x0001e05a       0x29 Src/main.o
 .debug_macro   0x0001e083      0x2b7 Src/stm32f4xx_hal_msp.o
 .debug_macro   0x0001e33a      0x2c1 Src/stm32f4xx_it.o
 .debug_macro   0x0001e5fb      0x2bd Src/system_stm32f4xx.o
 .debug_macro   0x0001e8b8      0x2cb Src/tim.o
 .debug_macro   0x0001eb83      0x317 Drivers/STM32F4xx_HAL_Driver/Src/stm32f4xx_hal.o
 .debug_macro   0x0001ee9a      0x2b8 Drivers/STM32F4xx_HAL_Driver/Src/stm32f4xx_hal_adc.o
 .debug_macro   0x0001f152      0x2b7 Drivers/STM32F4xx_HAL_Driver/Src/stm32f4xx_hal_cortex.o
 .debug_macro   0x0001f409      0x2be Drivers/STM32F4xx_HAL_Driver/Src/stm32f4xx_hal_dma.o
 .debug_macro   0x0001f6c7      0x2ef Drivers/STM32F4xx_HAL_Driver/Src/stm32f4xx_hal_gpio.o
 .debug_macro   0x0001f9b6      0x2f7 Drivers/STM32F4xx_HAL_Driver/Src/stm32f4xx_hal_i2c.o
 .debug_macro   0x0001fcad      0x2e1 Drivers/STM32F4xx_HAL_Driver/Src/stm32f4xx_hal_rcc.o
 .debug_macro   0x0001ff8e      0x2b8 Drivers/STM32F4xx_HAL_Driver/Src/stm32f4xx_hal_tim.o
 .debug_macro   0x00020246      0x2b7 Drivers/STM32F4xx_HAL_Driver/Src/stm32f4xx_hal_tim_ex.o

.debug_line     0x00000000     0xb9cf
 .debug_line    0x00000000      0x727 Src/adc.o
 .debug_line    0x00000727      0x681 Src/dma.o
 .debug_line    0x00000da8       0x65 Src/floodfill.o
 .debug_line    0x00000e0d      0x6ad Src/gpio.o
 .debug_line    0x000014ba      0x6c7 Src/i2c.o
 .debug_line    0x00001b81      0x984 Src/main.o
 .debug_line    0x00002505      0x68a Src/stm32f4xx_hal_msp.o
 .debug_line    0x00002b8f      0x758 Src/stm32f4xx_it.o
 .debug_line    0x000032e7      0x6b1 Src/system_stm32f4xx.o
 .debug_line    0x00003998      0x852 Src/tim.o
 .debug_line    0x000041ea      0x821 Drivers/STM32F4xx_HAL_Driver/Src/stm32f4xx_hal.o
 .debug_line    0x00004a0b      0xb4d Drivers/STM32F4xx_HAL_Driver/Src/stm32f4xx_hal_adc.o
 .debug_line    0x00005558      0x87b Drivers/STM32F4xx_HAL_Driver/Src/stm32f4xx_hal_cortex.o
 .debug_line    0x00005dd3      0x99e Drivers/STM32F4xx_HAL_Driver/Src/stm32f4xx_hal_dma.o
 .debug_line    0x00006771      0x850 Drivers/STM32F4xx_HAL_Driver/Src/stm32f4xx_hal_gpio.o
 .debug_line    0x00006fc1     0x1bf6 Drivers/STM32F4xx_HAL_Driver/Src/stm32f4xx_hal_i2c.o
 .debug_line    0x00008bb7      0x9c2 Drivers/STM32F4xx_HAL_Driver/Src/stm32f4xx_hal_rcc.o
 .debug_line    0x00009579     0x1755 Drivers/STM32F4xx_HAL_Driver/Src/stm32f4xx_hal_tim.o
 .debug_line    0x0000acce      0xc53 Drivers/STM32F4xx_HAL_Driver/Src/stm32f4xx_hal_tim_ex.o
 .debug_line    0x0000b921       0xae Drivers/CMSIS/Device/ST/STM32F4xx/Source/Templates/gcc/startup_stm32f405xx.o

.debug_str      0x00000000    0xbcca8
 .debug_str     0x00000000    0xb82c1 Src/adc.o
                              0xb85c3 (size before relaxing)
 .debug_str     0x000b82c1      0x4fb Src/dma.o
                              0xb8550 (size before relaxing)
 .debug_str     0x000b87bc       0x4c Src/floodfill.o
                               0x2557 (size before relaxing)
 .debug_str     0x000b8808       0x57 Src/gpio.o
                              0xb8128 (size before relaxing)
 .debug_str     0x000b885f      0x2df Src/i2c.o
                              0xb8661 (size before relaxing)
 .debug_str     0x000b8b3e     0x110c Src/main.o
                              0xb9bd9 (size before relaxing)
 .debug_str     0x000b9c4a       0x44 Src/stm32f4xx_hal_msp.o
                              0xb845c (size before relaxing)
 .debug_str     0x000b9c8e      0x13d Src/stm32f4xx_it.o
                              0xb8495 (size before relaxing)
 .debug_str     0x000b9dcb       0xdd Src/system_stm32f4xx.o
                              0xb812e (size before relaxing)
 .debug_str     0x000b9ea8      0x2a1 Src/tim.o
                              0xb8d5b (size before relaxing)
 .debug_str     0x000ba149      0x538 Drivers/STM32F4xx_HAL_Driver/Src/stm32f4xx_hal.o
                              0xb8bc3 (size before relaxing)
 .debug_str     0x000ba681      0x2a1 Drivers/STM32F4xx_HAL_Driver/Src/stm32f4xx_hal_adc.o
                              0xb86f2 (size before relaxing)
 .debug_str     0x000ba922      0x2db Drivers/STM32F4xx_HAL_Driver/Src/stm32f4xx_hal_cortex.o
                              0xb8952 (size before relaxing)
 .debug_str     0x000babfd      0x2e0 Drivers/STM32F4xx_HAL_Driver/Src/stm32f4xx_hal_dma.o
                              0xb8543 (size before relaxing)
 .debug_str     0x000baedd      0x21b Drivers/STM32F4xx_HAL_Driver/Src/stm32f4xx_hal_gpio.o
                              0xb83a6 (size before relaxing)
 .debug_str     0x000bb0f8      0xa57 Drivers/STM32F4xx_HAL_Driver/Src/stm32f4xx_hal_i2c.o
                              0xb8f80 (size before relaxing)
 .debug_str     0x000bbb4f      0x218 Drivers/STM32F4xx_HAL_Driver/Src/stm32f4xx_hal_rcc.o
                              0xb8544 (size before relaxing)
 .debug_str     0x000bbd67      0xac5 Drivers/STM32F4xx_HAL_Driver/Src/stm32f4xx_hal_tim.o
                              0xb913c (size before relaxing)
 .debug_str     0x000bc82c      0x47c Drivers/STM32F4xx_HAL_Driver/Src/stm32f4xx_hal_tim_ex.o
                              0xb89f4 (size before relaxing)

.comment        0x00000000       0x70
 .comment       0x00000000       0x70 Src/adc.o
                                 0x71 (size before relaxing)
 .comment       0x00000000       0x71 Src/dma.o
 .comment       0x00000000       0x71 Src/floodfill.o
 .comment       0x00000000       0x71 Src/gpio.o
 .comment       0x00000000       0x71 Src/i2c.o
 .comment       0x00000000       0x71 Src/main.o
 .comment       0x00000000       0x71 Src/stm32f4xx_hal_msp.o
 .comment       0x00000000       0x71 Src/stm32f4xx_it.o
 .comment       0x00000000       0x71 Src/system_stm32f4xx.o
 .comment       0x00000000       0x71 Src/tim.o
 .comment       0x00000000       0x71 Drivers/STM32F4xx_HAL_Driver/Src/stm32f4xx_hal.o
 .comment       0x00000000       0x71 Drivers/STM32F4xx_HAL_Driver/Src/stm32f4xx_hal_adc.o
 .comment       0x00000000       0x71 Drivers/STM32F4xx_HAL_Driver/Src/stm32f4xx_hal_cortex.o
 .comment       0x00000000       0x71 Drivers/STM32F4xx_HAL_Driver/Src/stm32f4xx_hal_dma.o
 .comment       0x00000000       0x71 Drivers/STM32F4xx_HAL_Driver/Src/stm32f4xx_hal_gpio.o
 .comment       0x00000000       0x71 Drivers/STM32F4xx_HAL_Driver/Src/stm32f4xx_hal_i2c.o
 .comment       0x00000000       0x71 Drivers/STM32F4xx_HAL_Driver/Src/stm32f4xx_hal_rcc.o
 .comment       0x00000000       0x71 Drivers/STM32F4xx_HAL_Driver/Src/stm32f4xx_hal_tim.o
 .comment       0x00000000       0x71 Drivers/STM32F4xx_HAL_Driver/Src/stm32f4xx_hal_tim_ex.o

.debug_frame    0x00000000     0x209c
 .debug_frame   0x00000000       0x74 Src/adc.o
 .debug_frame   0x00000074       0x28 Src/dma.o
 .debug_frame   0x0000009c       0x30 Src/floodfill.o
 .debug_frame   0x000000cc       0x38 Src/gpio.o
 .debug_frame   0x00000104       0x58 Src/i2c.o
 .debug_frame   0x0000015c      0x208 Src/main.o
 .debug_frame   0x00000364       0x2c Src/stm32f4xx_hal_msp.o
 .debug_frame   0x00000390       0xdc Src/stm32f4xx_it.o
 .debug_frame   0x0000046c       0x30 Src/system_stm32f4xx.o
 .debug_frame   0x0000049c      0x15c Src/tim.o
 .debug_frame   0x000005f8      0x184 Drivers/STM32F4xx_HAL_Driver/Src/stm32f4xx_hal.o
 .debug_frame   0x0000077c      0x23c Drivers/STM32F4xx_HAL_Driver/Src/stm32f4xx_hal_adc.o
 .debug_frame   0x000009b8      0x134 Drivers/STM32F4xx_HAL_Driver/Src/stm32f4xx_hal_cortex.o
 .debug_frame   0x00000aec      0x14c Drivers/STM32F4xx_HAL_Driver/Src/stm32f4xx_hal_dma.o
 .debug_frame   0x00000c38       0xc4 Drivers/STM32F4xx_HAL_Driver/Src/stm32f4xx_hal_gpio.o
 .debug_frame   0x00000cfc      0x63c Drivers/STM32F4xx_HAL_Driver/Src/stm32f4xx_hal_i2c.o
 .debug_frame   0x00001338      0x13c Drivers/STM32F4xx_HAL_Driver/Src/stm32f4xx_hal_rcc.o
 .debug_frame   0x00001474      0x88c Drivers/STM32F4xx_HAL_Driver/Src/stm32f4xx_hal_tim.o
 .debug_frame   0x00001d00      0x370 Drivers/STM32F4xx_HAL_Driver/Src/stm32f4xx_hal_tim_ex.o
 .debug_frame   0x00002070       0x2c d:/uc/sw4stm32/plugins/fr.ac6.mcu.externaltools.arm-none.win32_1.3.0.201507241045/tools/compiler/bin/../lib/gcc/arm-none-eabi/4.9.3/../../../../arm-none-eabi/lib/armv7e-m/fpu\libc_nano.a(lib_a-init.o)
